{
  "contractName": "Crowdsale",
  "abi": [
    {
      "constant": true,
      "inputs": [],
      "name": "gateway",
      "outputs": [
        {
          "name": "",
          "type": "address"
        }
      ],
      "payable": false,
      "stateMutability": "view",
      "type": "function"
    },
    {
      "constant": true,
      "inputs": [],
      "name": "endTime",
      "outputs": [
        {
          "name": "",
          "type": "uint256"
        }
      ],
      "payable": false,
      "stateMutability": "view",
      "type": "function"
    },
    {
      "constant": true,
      "inputs": [],
      "name": "startTime",
      "outputs": [
        {
          "name": "",
          "type": "uint256"
        }
      ],
      "payable": false,
      "stateMutability": "view",
      "type": "function"
    },
    {
      "constant": false,
      "inputs": [
        {
          "name": "newValue",
          "type": "bool"
        }
      ],
      "name": "setPending",
      "outputs": [],
      "payable": false,
      "stateMutability": "nonpayable",
      "type": "function"
    },
    {
      "constant": true,
      "inputs": [],
      "name": "owner",
      "outputs": [
        {
          "name": "",
          "type": "address"
        }
      ],
      "payable": false,
      "stateMutability": "view",
      "type": "function"
    },
    {
      "constant": false,
      "inputs": [
        {
          "name": "newValue",
          "type": "bool"
        }
      ],
      "name": "setClosedManually",
      "outputs": [],
      "payable": false,
      "stateMutability": "nonpayable",
      "type": "function"
    },
    {
      "constant": true,
      "inputs": [],
      "name": "pending",
      "outputs": [
        {
          "name": "",
          "type": "address"
        }
      ],
      "payable": false,
      "stateMutability": "view",
      "type": "function"
    },
    {
      "constant": true,
      "inputs": [],
      "name": "hasEnded",
      "outputs": [
        {
          "name": "",
          "type": "bool"
        }
      ],
      "payable": false,
      "stateMutability": "view",
      "type": "function"
    },
    {
      "constant": false,
      "inputs": [
        {
          "name": "newOwner",
          "type": "address"
        }
      ],
      "name": "transferOwnership",
      "outputs": [],
      "payable": false,
      "stateMutability": "nonpayable",
      "type": "function"
    },
    {
      "inputs": [
        {
          "name": "_startTime",
          "type": "uint256"
        },
        {
          "name": "_endTime",
          "type": "uint256"
        },
        {
          "name": "_vault",
          "type": "address"
        },
        {
          "name": "_whitelist",
          "type": "address"
        },
        {
          "name": "_minContrib",
          "type": "uint256"
        }
      ],
      "payable": false,
      "stateMutability": "nonpayable",
      "type": "constructor"
    },
    {
      "payable": true,
      "stateMutability": "payable",
      "type": "fallback"
    },
    {
      "anonymous": false,
      "inputs": [
        {
          "indexed": true,
          "name": "previousOwner",
          "type": "address"
        },
        {
          "indexed": true,
          "name": "newOwner",
          "type": "address"
        }
      ],
      "name": "OwnershipTransferred",
      "type": "event"
    }
  ],
  "bytecode": "0x60606040526000600460146101000a81548160ff0219169083151502179055506001600460156101000a81548160ff021916908315150217905550341561004557600080fd5b60405160a080611eda83398101604052808051906020019091908051906020019091908051906020019091908051906020019091908051906020019091905050336000806101000a81548173ffffffffffffffffffffffffffffffffffffffff021916908373ffffffffffffffffffffffffffffffffffffffff1602179055508484101515156100d457600080fd5b600073ffffffffffffffffffffffffffffffffffffffff168373ffffffffffffffffffffffffffffffffffffffff161415151561011057600080fd5b846001819055508360028190555080600581905550818361012f6103a1565b808373ffffffffffffffffffffffffffffffffffffffff1673ffffffffffffffffffffffffffffffffffffffff1681526020018273ffffffffffffffffffffffffffffffffffffffff1673ffffffffffffffffffffffffffffffffffffffff16815260200192505050604051809103906000f08015156101ae57600080fd5b600360006101000a81548173ffffffffffffffffffffffffffffffffffffffff021916908373ffffffffffffffffffffffffffffffffffffffff160217905550600360009054906101000a900473ffffffffffffffffffffffffffffffffffffffff166102196103b1565b808273ffffffffffffffffffffffffffffffffffffffff1673ffffffffffffffffffffffffffffffffffffffff168152602001915050604051809103906000f080151561026557600080fd5b600460006101000a81548173ffffffffffffffffffffffffffffffffffffffff021916908373ffffffffffffffffffffffffffffffffffffffff160217905550600360009054906101000a900473ffffffffffffffffffffffffffffffffffffffff1673ffffffffffffffffffffffffffffffffffffffff16637065cb48600460009054906101000a900473ffffffffffffffffffffffffffffffffffffffff166040518263ffffffff167c0100000000000000000000000000000000000000000000000000000000028152600401808273ffffffffffffffffffffffffffffffffffffffff1673ffffffffffffffffffffffffffffffffffffffff168152602001915050600060405180830381600087803b151561038357600080fd5b6102c65a03f1151561039457600080fd5b50505050505050506103c1565b60405161076c80610d6183390190565b604051610a0d806114cd83390190565b610991806103d06000396000f300606060405260043610610099576000357c0100000000000000000000000000000000000000000000000000000000900463ffffffff168063116191b6146100b65780633197cbb61461010b57806378e97925146101345780638ae3beb21461015d5780638da5cb5b14610182578063caf6e1c9146101d7578063e20ccec3146101fc578063ecb70fb714610251578063f2fde38b1461027e575b6100a16102b7565b15156100ac57600080fd5b6100b4610408565b005b34156100c157600080fd5b6100c9610697565b604051808273ffffffffffffffffffffffffffffffffffffffff1673ffffffffffffffffffffffffffffffffffffffff16815260200191505060405180910390f35b341561011657600080fd5b61011e6106bd565b6040518082815260200191505060405180910390f35b341561013f57600080fd5b6101476106c3565b6040518082815260200191505060405180910390f35b341561016857600080fd5b610180600480803515159060200190919050506106c9565b005b341561018d57600080fd5b610195610741565b604051808273ffffffffffffffffffffffffffffffffffffffff1673ffffffffffffffffffffffffffffffffffffffff16815260200191505060405180910390f35b34156101e257600080fd5b6101fa60048080351515906020019091905050610766565b005b341561020757600080fd5b61020f6107de565b604051808273ffffffffffffffffffffffffffffffffffffffff1673ffffffffffffffffffffffffffffffffffffffff16815260200191505060405180910390f35b341561025c57600080fd5b610264610804565b604051808215151515815260200191505060405180910390f35b341561028957600080fd5b6102b5600480803573ffffffffffffffffffffffffffffffffffffffff16906020019091905050610810565b005b60008060008060015442101580156102d157506002544211155b92506005543410159150600360009054906101000a900473ffffffffffffffffffffffffffffffffffffffff1673ffffffffffffffffffffffffffffffffffffffff16633af32abf336000604051602001526040518263ffffffff167c0100000000000000000000000000000000000000000000000000000000028152600401808273ffffffffffffffffffffffffffffffffffffffff1673ffffffffffffffffffffffffffffffffffffffff168152602001915050602060405180830381600087803b15156103a057600080fd5b6102c65a03f115156103b157600080fd5b505050604051805190509050600460149054906101000a900460ff161580156103d75750825b80156103e05750815b80156104005750600460159054906101000a900460ff16806103ff5750805b5b935050505090565b600360009054906101000a900473ffffffffffffffffffffffffffffffffffffffff1673ffffffffffffffffffffffffffffffffffffffff16633af32abf336000604051602001526040518263ffffffff167c0100000000000000000000000000000000000000000000000000000000028152600401808273ffffffffffffffffffffffffffffffffffffffff1673ffffffffffffffffffffffffffffffffffffffff168152602001915050602060405180830381600087803b15156104cd57600080fd5b6102c65a03f115156104de57600080fd5b50505060405180519050156105c357600360009054906101000a900473ffffffffffffffffffffffffffffffffffffffff1673ffffffffffffffffffffffffffffffffffffffff16632302440834336040518363ffffffff167c0100000000000000000000000000000000000000000000000000000000028152600401808273ffffffffffffffffffffffffffffffffffffffff1673ffffffffffffffffffffffffffffffffffffffff1681526020019150506000604051808303818588803b15156105a957600080fd5b6125ee5a03f115156105ba57600080fd5b50505050610695565b600460009054906101000a900473ffffffffffffffffffffffffffffffffffffffff1673ffffffffffffffffffffffffffffffffffffffff16632302440834336040518363ffffffff167c0100000000000000000000000000000000000000000000000000000000028152600401808273ffffffffffffffffffffffffffffffffffffffff1673ffffffffffffffffffffffffffffffffffffffff1681526020019150506000604051808303818588803b151561067f57600080fd5b6125ee5a03f1151561069057600080fd5b505050505b565b600360009054906101000a900473ffffffffffffffffffffffffffffffffffffffff1681565b60025481565b60015481565b6000809054906101000a900473ffffffffffffffffffffffffffffffffffffffff1673ffffffffffffffffffffffffffffffffffffffff163373ffffffffffffffffffffffffffffffffffffffff1614151561072457600080fd5b80600460156101000a81548160ff02191690831515021790555050565b6000809054906101000a900473ffffffffffffffffffffffffffffffffffffffff1681565b6000809054906101000a900473ffffffffffffffffffffffffffffffffffffffff1673ffffffffffffffffffffffffffffffffffffffff163373ffffffffffffffffffffffffffffffffffffffff161415156107c157600080fd5b80600460146101000a81548160ff02191690831515021790555050565b600460009054906101000a900473ffffffffffffffffffffffffffffffffffffffff1681565b60006002544211905090565b6000809054906101000a900473ffffffffffffffffffffffffffffffffffffffff1673ffffffffffffffffffffffffffffffffffffffff163373ffffffffffffffffffffffffffffffffffffffff1614151561086b57600080fd5b600073ffffffffffffffffffffffffffffffffffffffff168173ffffffffffffffffffffffffffffffffffffffff16141515156108a757600080fd5b8073ffffffffffffffffffffffffffffffffffffffff166000809054906101000a900473ffffffffffffffffffffffffffffffffffffffff1673ffffffffffffffffffffffffffffffffffffffff167f8be0079c531659141344cd1fd0a4f28419497f9722a3daafe3b4186f6b6457e060405160405180910390a3806000806101000a81548173ffffffffffffffffffffffffffffffffffffffff021916908373ffffffffffffffffffffffffffffffffffffffff160217905550505600a165627a7a72305820b342f22df96e805ed27f905645dedfeb213e4bb948fa13163105503aacbe672f00296060604052341561000f57600080fd5b60405160408061076c8339810160405280805190602001909190805190602001909190505081600360006101000a81548173ffffffffffffffffffffffffffffffffffffffff021916908373ffffffffffffffffffffffffffffffffffffffff16021790555080600260006101000a81548173ffffffffffffffffffffffffffffffffffffffff021916908373ffffffffffffffffffffffffffffffffffffffff16021790555060016000803373ffffffffffffffffffffffffffffffffffffffff1673ffffffffffffffffffffffffffffffffffffffff16815260200190815260200160002060006101000a81548160ff021916908315150217905550505061064e8061011e6000396000f300606060405260043610610083576000357c0100000000000000000000000000000000000000000000000000000000900463ffffffff168063022914a71461008857806323024408146100d95780633af32abf1461010757806342e94c90146101585780637065cb48146101a557806393e59dc1146101de578063fbfa77cf14610233575b600080fd5b341561009357600080fd5b6100bf600480803573ffffffffffffffffffffffffffffffffffffffff16906020019091905050610288565b604051808215151515815260200191505060405180910390f35b610105600480803573ffffffffffffffffffffffffffffffffffffffff169060200190919050506102a8565b005b341561011257600080fd5b61013e600480803573ffffffffffffffffffffffffffffffffffffffff16906020019091905050610424565b604051808215151515815260200191505060405180910390f35b341561016357600080fd5b61018f600480803573ffffffffffffffffffffffffffffffffffffffff1690602001909190505061050d565b6040518082815260200191505060405180910390f35b34156101b057600080fd5b6101dc600480803573ffffffffffffffffffffffffffffffffffffffff16906020019091905050610525565b005b34156101e957600080fd5b6101f16105d6565b604051808273ffffffffffffffffffffffffffffffffffffffff1673ffffffffffffffffffffffffffffffffffffffff16815260200191505060405180910390f35b341561023e57600080fd5b6102466105fc565b604051808273ffffffffffffffffffffffffffffffffffffffff1673ffffffffffffffffffffffffffffffffffffffff16815260200191505060405180910390f35b60006020528060005260406000206000915054906101000a900460ff1681565b6000803373ffffffffffffffffffffffffffffffffffffffff1673ffffffffffffffffffffffffffffffffffffffff16815260200190815260200160002060009054906101000a900460ff1615156102ff57600080fd5b34600160008373ffffffffffffffffffffffffffffffffffffffff1673ffffffffffffffffffffffffffffffffffffffff16815260200190815260200160002060008282540192505081905550600260009054906101000a900473ffffffffffffffffffffffffffffffffffffffff1673ffffffffffffffffffffffffffffffffffffffff166108fc349081150290604051600060405180830381858888f1935050505015156103ae57600080fd5b7f16d99cb06fd9528f88184dd0483174a09cfd8312c28639858734b0c449cc05b8813442604051808473ffffffffffffffffffffffffffffffffffffffff1673ffffffffffffffffffffffffffffffffffffffff168152602001838152602001828152602001935050505060405180910390a150565b6000600360009054906101000a900473ffffffffffffffffffffffffffffffffffffffff1673ffffffffffffffffffffffffffffffffffffffff16633af32abf836000604051602001526040518263ffffffff167c0100000000000000000000000000000000000000000000000000000000028152600401808273ffffffffffffffffffffffffffffffffffffffff1673ffffffffffffffffffffffffffffffffffffffff168152602001915050602060405180830381600087803b15156104eb57600080fd5b6102c65a03f115156104fc57600080fd5b505050604051805190509050919050565b60016020528060005260406000206000915090505481565b6000803373ffffffffffffffffffffffffffffffffffffffff1673ffffffffffffffffffffffffffffffffffffffff16815260200190815260200160002060009054906101000a900460ff16151561057c57600080fd5b60016000808373ffffffffffffffffffffffffffffffffffffffff1673ffffffffffffffffffffffffffffffffffffffff16815260200190815260200160002060006101000a81548160ff02191690831515021790555050565b600360009054906101000a900473ffffffffffffffffffffffffffffffffffffffff1681565b600260009054906101000a900473ffffffffffffffffffffffffffffffffffffffff16815600a165627a7a72305820538ea4e7bda95c3fa5538a436bb97e1c14e8109e7b71d3d45b14ba04b4c706e900296060604052341561000f57600080fd5b604051602080610a0d83398101604052808051906020019091905050336000806101000a81548173ffffffffffffffffffffffffffffffffffffffff021916908373ffffffffffffffffffffffffffffffffffffffff16021790555080600260006101000a81548173ffffffffffffffffffffffffffffffffffffffff021916908373ffffffffffffffffffffffffffffffffffffffff16021790555050610951806100bc6000396000f300606060405260043610610083576000357c0100000000000000000000000000000000000000000000000000000000900463ffffffff168063116191b61461008857806323024408146100dd5780633ccfd60b1461010b57806342e94c90146101205780635fb130af1461016d5780638da5cb5b146101a6578063f2fde38b146101fb575b600080fd5b341561009357600080fd5b61009b610234565b604051808273ffffffffffffffffffffffffffffffffffffffff1673ffffffffffffffffffffffffffffffffffffffff16815260200191505060405180910390f35b610109600480803573ffffffffffffffffffffffffffffffffffffffff1690602001909190505061025a565b005b341561011657600080fd5b61011e610378565b005b341561012b57600080fd5b610157600480803573ffffffffffffffffffffffffffffffffffffffff169060200190919050506104c6565b6040518082815260200191505060405180910390f35b341561017857600080fd5b6101a4600480803573ffffffffffffffffffffffffffffffffffffffff169060200190919050506104de565b005b34156101b157600080fd5b6101b96107ab565b604051808273ffffffffffffffffffffffffffffffffffffffff1673ffffffffffffffffffffffffffffffffffffffff16815260200191505060405180910390f35b341561020657600080fd5b610232600480803573ffffffffffffffffffffffffffffffffffffffff169060200190919050506107d0565b005b600260009054906101000a900473ffffffffffffffffffffffffffffffffffffffff1681565b6000809054906101000a900473ffffffffffffffffffffffffffffffffffffffff1673ffffffffffffffffffffffffffffffffffffffff163373ffffffffffffffffffffffffffffffffffffffff161415156102b557600080fd5b34600160008373ffffffffffffffffffffffffffffffffffffffff1673ffffffffffffffffffffffffffffffffffffffff168152602001908152602001600020600082825401925050819055507f1a9b370a248f3f7ecf990081701a2676aee708a7232617d1483a478e5d8f5d87813442604051808473ffffffffffffffffffffffffffffffffffffffff1673ffffffffffffffffffffffffffffffffffffffff168152602001838152602001828152602001935050505060405180910390a150565b6000600160003373ffffffffffffffffffffffffffffffffffffffff1673ffffffffffffffffffffffffffffffffffffffff1681526020019081526020016000205490506000811115156103cb57600080fd5b6000600160003373ffffffffffffffffffffffffffffffffffffffff1673ffffffffffffffffffffffffffffffffffffffff168152602001908152602001600020819055503373ffffffffffffffffffffffffffffffffffffffff166108fc829081150290604051600060405180830381858888f19350505050151561045057600080fd5b7f4083144a0c522ae47ef0b1c531ef613d80c47f4eb802902db1cfab4ce5d25e76338242604051808473ffffffffffffffffffffffffffffffffffffffff1673ffffffffffffffffffffffffffffffffffffffff168152602001838152602001828152602001935050505060405180910390a150565b60016020528060005260406000206000915090505481565b600081600260009054906101000a900473ffffffffffffffffffffffffffffffffffffffff1673ffffffffffffffffffffffffffffffffffffffff16633af32abf826000604051602001526040518263ffffffff167c0100000000000000000000000000000000000000000000000000000000028152600401808273ffffffffffffffffffffffffffffffffffffffff1673ffffffffffffffffffffffffffffffffffffffff168152602001915050602060405180830381600087803b15156105a657600080fd5b6102c65a03f115156105b757600080fd5b5050506040518051905015156105cc57600080fd5b600160008473ffffffffffffffffffffffffffffffffffffffff1673ffffffffffffffffffffffffffffffffffffffff16815260200190815260200160002054915060008211151561061d57600080fd5b600260009054906101000a900473ffffffffffffffffffffffffffffffffffffffff1673ffffffffffffffffffffffffffffffffffffffff16632302440883856040518363ffffffff167c0100000000000000000000000000000000000000000000000000000000028152600401808273ffffffffffffffffffffffffffffffffffffffff1673ffffffffffffffffffffffffffffffffffffffff1681526020019150506000604051808303818588803b15156106d957600080fd5b6125ee5a03f115156106ea57600080fd5b505050506000600160008573ffffffffffffffffffffffffffffffffffffffff1673ffffffffffffffffffffffffffffffffffffffff168152602001908152602001600020819055507ff2b8bfae9ea4da2137f22ddb93ce6ebeb5aee91bb362568ed003f1cb7b1979c4838342604051808473ffffffffffffffffffffffffffffffffffffffff1673ffffffffffffffffffffffffffffffffffffffff168152602001838152602001828152602001935050505060405180910390a1505050565b6000809054906101000a900473ffffffffffffffffffffffffffffffffffffffff1681565b6000809054906101000a900473ffffffffffffffffffffffffffffffffffffffff1673ffffffffffffffffffffffffffffffffffffffff163373ffffffffffffffffffffffffffffffffffffffff1614151561082b57600080fd5b600073ffffffffffffffffffffffffffffffffffffffff168173ffffffffffffffffffffffffffffffffffffffff161415151561086757600080fd5b8073ffffffffffffffffffffffffffffffffffffffff166000809054906101000a900473ffffffffffffffffffffffffffffffffffffffff1673ffffffffffffffffffffffffffffffffffffffff167f8be0079c531659141344cd1fd0a4f28419497f9722a3daafe3b4186f6b6457e060405160405180910390a3806000806101000a81548173ffffffffffffffffffffffffffffffffffffffff021916908373ffffffffffffffffffffffffffffffffffffffff160217905550505600a165627a7a72305820cc7d022c882f5bb59507ff7e008642fe65944cb71d227303b54575b2cfa316b20029",
  "source": "pragma solidity ^0.4.18;\nimport \"./Whitelist.sol\";\nimport \"./PendingContributions.sol\";\nimport \"./WhitelistedGateway.sol\";\nimport \"zeppelin-solidity/contracts/ownership/Ownable.sol\";\nimport \"zeppelin-solidity/contracts/math/SafeMath.sol\";\n\n/**\n * @title Crowdsale\n * @dev Crowdsale enables to take contributions that go to a vault\n * if the contributor is whitelisted, otherwise go to a PendingContributions contract\n * waiting for the contributor to be whitelisted\n */\ncontract Crowdsale is Ownable {\n  using SafeMath for uint256;\n\n  // start and end timestamps where investments are allowed (both inclusive)\n  uint256 public startTime;\n  uint256 public endTime;\n\n  // address where funds are collected\n  WhitelistedGateway public gateway;\n  PendingContributions public pending;\n\n\tbool closedManually = false;\n\tbool acceptWithoutWhitelist = true;\n  uint256 minContrib;\n\n\tfunction setPending(bool newValue) public onlyOwner {\n\t\tacceptWithoutWhitelist = newValue;\n\t}\n\n\tfunction setClosedManually(bool newValue) public onlyOwner {\n\t\tclosedManually = newValue;\n\t}\n\n\n  function Crowdsale(uint256 _startTime, uint256 _endTime, address _vault, Whitelist _whitelist, uint256 _minContrib) public {\n    // require(_startTime >= now);\n    require(_endTime >= _startTime);\n    require(_vault != address(0));\n\n    startTime = _startTime;\n    endTime = _endTime;\n    minContrib = _minContrib;\n    gateway = new WhitelistedGateway(_whitelist, _vault);\n\tpending = new PendingContributions(gateway);\n\t// allow the pending container to fund the gateway\n\tgateway.addOwner(pending);\n  }\n\n  // fallback function can be used to buy tokens\n  function () external payable {\n    require(validPurchase());\n    forwardFunds();  \n  }\n\n  // send ether either to the Gateway or to the PendingContributions\n  function forwardFunds() internal {\n\tif(gateway.isWhitelisted(msg.sender)) {\n\t\tgateway.fund.value(msg.value)(msg.sender);\n\t\treturn;\n\t} \n\tpending.fund.value(msg.value)(msg.sender);\n  }\n\n  // @return true if the transaction can buy tokens\n  function validPurchase() internal view returns (bool) {\n    bool withinPeriod = now >= startTime && now <= endTime;\n    bool sufficientPurchase = msg.value >= minContrib;\n    bool whitelisted = gateway.isWhitelisted(msg.sender);\n    return !closedManually && withinPeriod && sufficientPurchase && (acceptWithoutWhitelist || whitelisted);\n  }\n\n  // @return true if crowdsale event has ended\n  function hasEnded() public view returns (bool) {\n    return now > endTime;\n  }\n\n}",
  "sourcePath": "/home/ubuntu/Whitelist/contracts/Crowdsale.sol",
  "compiler": {
    "name": "solc",
    "version": "0.4.18+commit.9cf6e910.Emscripten.clang"
  },
  "schemaVersion": "1.0.1",
  "updatedAt": "2018-01-18T21:01:29.988Z"
}