{
  "contractName": "Whitelist",
  "abi": [
    {
      "constant": true,
      "inputs": [
        {
          "name": "candidate",
          "type": "address"
        }
      ],
      "name": "isWhitelisted",
      "outputs": [
        {
          "name": "",
          "type": "bool"
        }
      ],
      "payable": false,
      "stateMutability": "view",
      "type": "function"
    },
    {
      "constant": false,
      "inputs": [
        {
          "name": "candidate",
          "type": "address"
        }
      ],
      "name": "revoke",
      "outputs": [],
      "payable": false,
      "stateMutability": "nonpayable",
      "type": "function"
    },
    {
      "constant": false,
      "inputs": [
        {
          "name": "candidates",
          "type": "address[50]"
        }
      ],
      "name": "authorizeMany",
      "outputs": [],
      "payable": false,
      "stateMutability": "nonpayable",
      "type": "function"
    },
    {
      "constant": true,
      "inputs": [],
      "name": "owner",
      "outputs": [
        {
          "name": "",
          "type": "address"
        }
      ],
      "payable": false,
      "stateMutability": "view",
      "type": "function"
    },
    {
      "constant": true,
      "inputs": [
        {
          "name": "",
          "type": "address"
        }
      ],
      "name": "whitelist",
      "outputs": [
        {
          "name": "",
          "type": "bool"
        }
      ],
      "payable": false,
      "stateMutability": "view",
      "type": "function"
    },
    {
      "constant": false,
      "inputs": [
        {
          "name": "candidate",
          "type": "address"
        }
      ],
      "name": "authorize",
      "outputs": [],
      "payable": false,
      "stateMutability": "nonpayable",
      "type": "function"
    },
    {
      "constant": false,
      "inputs": [
        {
          "name": "newOwner",
          "type": "address"
        }
      ],
      "name": "transferOwnership",
      "outputs": [],
      "payable": false,
      "stateMutability": "nonpayable",
      "type": "function"
    },
    {
      "anonymous": false,
      "inputs": [
        {
          "indexed": false,
          "name": "candidate",
          "type": "address"
        },
        {
          "indexed": false,
          "name": "timestamp",
          "type": "uint256"
        }
      ],
      "name": "Authorized",
      "type": "event"
    },
    {
      "anonymous": false,
      "inputs": [
        {
          "indexed": false,
          "name": "candidate",
          "type": "address"
        },
        {
          "indexed": false,
          "name": "timestamp",
          "type": "uint256"
        }
      ],
      "name": "Revoked",
      "type": "event"
    },
    {
      "anonymous": false,
      "inputs": [
        {
          "indexed": true,
          "name": "previousOwner",
          "type": "address"
        },
        {
          "indexed": true,
          "name": "newOwner",
          "type": "address"
        }
      ],
      "name": "OwnershipTransferred",
      "type": "event"
    }
  ],
  "bytecode": "0x6060604052336000806101000a81548173ffffffffffffffffffffffffffffffffffffffff021916908373ffffffffffffffffffffffffffffffffffffffff160217905550610765806100536000396000f300606060405260043610610083576000357c0100000000000000000000000000000000000000000000000000000000900463ffffffff1680633af32abf1461008857806374a8f103146100d95780638b9299dc146101125780638da5cb5b146101595780639b19251a146101ae578063b6a5d7de146101ff578063f2fde38b14610238575b600080fd5b341561009357600080fd5b6100bf600480803573ffffffffffffffffffffffffffffffffffffffff16906020019091905050610271565b604051808215151515815260200191505060405180910390f35b34156100e457600080fd5b610110600480803573ffffffffffffffffffffffffffffffffffffffff169060200190919050506102c7565b005b341561011d57600080fd5b61015760048080610640019060328060200260405190810160405280929190826032602002808284378201915050505050919050506103e8565b005b341561016457600080fd5b61016c61047f565b604051808273ffffffffffffffffffffffffffffffffffffffff1673ffffffffffffffffffffffffffffffffffffffff16815260200191505060405180910390f35b34156101b957600080fd5b6101e5600480803573ffffffffffffffffffffffffffffffffffffffff169060200190919050506104a4565b604051808215151515815260200191505060405180910390f35b341561020a57600080fd5b610236600480803573ffffffffffffffffffffffffffffffffffffffff169060200190919050506104c4565b005b341561024357600080fd5b61026f600480803573ffffffffffffffffffffffffffffffffffffffff169060200190919050506105e4565b005b6000600160008373ffffffffffffffffffffffffffffffffffffffff1673ffffffffffffffffffffffffffffffffffffffff16815260200190815260200160002060009054906101000a900460ff169050919050565b6000809054906101000a900473ffffffffffffffffffffffffffffffffffffffff1673ffffffffffffffffffffffffffffffffffffffff163373ffffffffffffffffffffffffffffffffffffffff1614151561032257600080fd5b6000600160008373ffffffffffffffffffffffffffffffffffffffff1673ffffffffffffffffffffffffffffffffffffffff16815260200190815260200160002060006101000a81548160ff0219169083151502179055507f713b90881ad62c4fa8ab6bd9197fa86481fc0c11b2edba60026514281b2dbac48142604051808373ffffffffffffffffffffffffffffffffffffffff1673ffffffffffffffffffffffffffffffffffffffff1681526020018281526020019250505060405180910390a150565b60008060009054906101000a900473ffffffffffffffffffffffffffffffffffffffff1673ffffffffffffffffffffffffffffffffffffffff163373ffffffffffffffffffffffffffffffffffffffff1614151561044557600080fd5b600090505b603281101561047b5761046e828260328110151561046457fe5b60200201516104c4565b808060010191505061044a565b5050565b6000809054906101000a900473ffffffffffffffffffffffffffffffffffffffff1681565b60016020528060005260406000206000915054906101000a900460ff1681565b6000809054906101000a900473ffffffffffffffffffffffffffffffffffffffff1673ffffffffffffffffffffffffffffffffffffffff163373ffffffffffffffffffffffffffffffffffffffff1614151561051f57600080fd5b60018060008373ffffffffffffffffffffffffffffffffffffffff1673ffffffffffffffffffffffffffffffffffffffff16815260200190815260200160002060006101000a81548160ff0219169083151502179055507fb39b5f240c7440b58c1c6cfd328b09ff9aa18b3c8ef4b829774e4f5bad0394168142604051808373ffffffffffffffffffffffffffffffffffffffff1673ffffffffffffffffffffffffffffffffffffffff1681526020018281526020019250505060405180910390a150565b6000809054906101000a900473ffffffffffffffffffffffffffffffffffffffff1673ffffffffffffffffffffffffffffffffffffffff163373ffffffffffffffffffffffffffffffffffffffff1614151561063f57600080fd5b600073ffffffffffffffffffffffffffffffffffffffff168173ffffffffffffffffffffffffffffffffffffffff161415151561067b57600080fd5b8073ffffffffffffffffffffffffffffffffffffffff166000809054906101000a900473ffffffffffffffffffffffffffffffffffffffff1673ffffffffffffffffffffffffffffffffffffffff167f8be0079c531659141344cd1fd0a4f28419497f9722a3daafe3b4186f6b6457e060405160405180910390a3806000806101000a81548173ffffffffffffffffffffffffffffffffffffffff021916908373ffffffffffffffffffffffffffffffffffffffff160217905550505600a165627a7a723058207546b48286e2c0cc48f36aa1b36ae56598c081b078da6b6921252b3837aa62e20029",
  "source": "pragma solidity ^0.4.18;\nimport \"zeppelin-solidity/contracts/ownership/Ownable.sol\";\nimport \"zeppelin-solidity/contracts/math/SafeMath.sol\";\n\ncontract Whitelist is Ownable {\n\tusing SafeMath for uint256;\n\n\tmapping(address=>bool) public whitelist;\n\t\n\tevent Authorized(address candidate, uint timestamp);\n\tevent Revoked(address candidate, uint timestamp);\n\n\tfunction authorize(address candidate) public onlyOwner {\n\t    whitelist[candidate] = true;\n\t    Authorized(candidate, now);\n\t}\n\t\n\t// also if not in the list..\n\tfunction revoke(address candidate) public onlyOwner {\n\t    whitelist[candidate] = false;\n\t    Revoked(candidate, now);\n\t}\n\t\n\tfunction authorizeMany(address[50] candidates) public onlyOwner {\n\t    for(uint i = 0; i < candidates.length; i++) {\n\t        authorize(candidates[i]);\n\t    }\n\t}\n\n\tfunction isWhitelisted(address candidate) public view returns(bool) {\n\t\treturn whitelist[candidate];\n\t}\n}",
  "sourcePath": "/home/ubuntu/Whitelist/contracts/Whitelist.sol",
  "compiler": {
    "name": "solc",
    "version": "0.4.18+commit.9cf6e910.Emscripten.clang"
  },
  "schemaVersion": "1.0.1",
  "updatedAt": "2018-01-18T21:01:29.985Z"
}