{
  "contractName": "WhitelistedGateway",
  "abi": [
    {
      "constant": true,
      "inputs": [
        {
          "name": "",
          "type": "address"
        }
      ],
      "name": "owners",
      "outputs": [
        {
          "name": "",
          "type": "bool"
        }
      ],
      "payable": false,
      "stateMutability": "view",
      "type": "function"
    },
    {
      "constant": false,
      "inputs": [
        {
          "name": "contributor",
          "type": "address"
        }
      ],
      "name": "fund",
      "outputs": [],
      "payable": true,
      "stateMutability": "payable",
      "type": "function"
    },
    {
      "constant": true,
      "inputs": [
        {
          "name": "candidate",
          "type": "address"
        }
      ],
      "name": "isWhitelisted",
      "outputs": [
        {
          "name": "",
          "type": "bool"
        }
      ],
      "payable": false,
      "stateMutability": "view",
      "type": "function"
    },
    {
      "constant": true,
      "inputs": [
        {
          "name": "",
          "type": "address"
        }
      ],
      "name": "contributions",
      "outputs": [
        {
          "name": "",
          "type": "uint256"
        }
      ],
      "payable": false,
      "stateMutability": "view",
      "type": "function"
    },
    {
      "constant": false,
      "inputs": [
        {
          "name": "newOwner",
          "type": "address"
        }
      ],
      "name": "addOwner",
      "outputs": [],
      "payable": false,
      "stateMutability": "nonpayable",
      "type": "function"
    },
    {
      "constant": true,
      "inputs": [],
      "name": "whitelist",
      "outputs": [
        {
          "name": "",
          "type": "address"
        }
      ],
      "payable": false,
      "stateMutability": "view",
      "type": "function"
    },
    {
      "constant": true,
      "inputs": [],
      "name": "vault",
      "outputs": [
        {
          "name": "",
          "type": "address"
        }
      ],
      "payable": false,
      "stateMutability": "view",
      "type": "function"
    },
    {
      "inputs": [
        {
          "name": "_whitelist",
          "type": "address"
        },
        {
          "name": "_vault",
          "type": "address"
        }
      ],
      "payable": false,
      "stateMutability": "nonpayable",
      "type": "constructor"
    },
    {
      "anonymous": false,
      "inputs": [
        {
          "indexed": false,
          "name": "contributor",
          "type": "address"
        },
        {
          "indexed": false,
          "name": "amount",
          "type": "uint256"
        },
        {
          "indexed": false,
          "name": "timestamp",
          "type": "uint256"
        }
      ],
      "name": "NewContribution",
      "type": "event"
    }
  ],
  "bytecode": "0x6060604052341561000f57600080fd5b60405160408061076c8339810160405280805190602001909190805190602001909190505081600360006101000a81548173ffffffffffffffffffffffffffffffffffffffff021916908373ffffffffffffffffffffffffffffffffffffffff16021790555080600260006101000a81548173ffffffffffffffffffffffffffffffffffffffff021916908373ffffffffffffffffffffffffffffffffffffffff16021790555060016000803373ffffffffffffffffffffffffffffffffffffffff1673ffffffffffffffffffffffffffffffffffffffff16815260200190815260200160002060006101000a81548160ff021916908315150217905550505061064e8061011e6000396000f300606060405260043610610083576000357c0100000000000000000000000000000000000000000000000000000000900463ffffffff168063022914a71461008857806323024408146100d95780633af32abf1461010757806342e94c90146101585780637065cb48146101a557806393e59dc1146101de578063fbfa77cf14610233575b600080fd5b341561009357600080fd5b6100bf600480803573ffffffffffffffffffffffffffffffffffffffff16906020019091905050610288565b604051808215151515815260200191505060405180910390f35b610105600480803573ffffffffffffffffffffffffffffffffffffffff169060200190919050506102a8565b005b341561011257600080fd5b61013e600480803573ffffffffffffffffffffffffffffffffffffffff16906020019091905050610424565b604051808215151515815260200191505060405180910390f35b341561016357600080fd5b61018f600480803573ffffffffffffffffffffffffffffffffffffffff1690602001909190505061050d565b6040518082815260200191505060405180910390f35b34156101b057600080fd5b6101dc600480803573ffffffffffffffffffffffffffffffffffffffff16906020019091905050610525565b005b34156101e957600080fd5b6101f16105d6565b604051808273ffffffffffffffffffffffffffffffffffffffff1673ffffffffffffffffffffffffffffffffffffffff16815260200191505060405180910390f35b341561023e57600080fd5b6102466105fc565b604051808273ffffffffffffffffffffffffffffffffffffffff1673ffffffffffffffffffffffffffffffffffffffff16815260200191505060405180910390f35b60006020528060005260406000206000915054906101000a900460ff1681565b6000803373ffffffffffffffffffffffffffffffffffffffff1673ffffffffffffffffffffffffffffffffffffffff16815260200190815260200160002060009054906101000a900460ff1615156102ff57600080fd5b34600160008373ffffffffffffffffffffffffffffffffffffffff1673ffffffffffffffffffffffffffffffffffffffff16815260200190815260200160002060008282540192505081905550600260009054906101000a900473ffffffffffffffffffffffffffffffffffffffff1673ffffffffffffffffffffffffffffffffffffffff166108fc349081150290604051600060405180830381858888f1935050505015156103ae57600080fd5b7f16d99cb06fd9528f88184dd0483174a09cfd8312c28639858734b0c449cc05b8813442604051808473ffffffffffffffffffffffffffffffffffffffff1673ffffffffffffffffffffffffffffffffffffffff168152602001838152602001828152602001935050505060405180910390a150565b6000600360009054906101000a900473ffffffffffffffffffffffffffffffffffffffff1673ffffffffffffffffffffffffffffffffffffffff16633af32abf836000604051602001526040518263ffffffff167c0100000000000000000000000000000000000000000000000000000000028152600401808273ffffffffffffffffffffffffffffffffffffffff1673ffffffffffffffffffffffffffffffffffffffff168152602001915050602060405180830381600087803b15156104eb57600080fd5b6102c65a03f115156104fc57600080fd5b505050604051805190509050919050565b60016020528060005260406000206000915090505481565b6000803373ffffffffffffffffffffffffffffffffffffffff1673ffffffffffffffffffffffffffffffffffffffff16815260200190815260200160002060009054906101000a900460ff16151561057c57600080fd5b60016000808373ffffffffffffffffffffffffffffffffffffffff1673ffffffffffffffffffffffffffffffffffffffff16815260200190815260200160002060006101000a81548160ff02191690831515021790555050565b600360009054906101000a900473ffffffffffffffffffffffffffffffffffffffff1681565b600260009054906101000a900473ffffffffffffffffffffffffffffffffffffffff16815600a165627a7a72305820538ea4e7bda95c3fa5538a436bb97e1c14e8109e7b71d3d45b14ba04b4c706e90029",
  "source": "pragma solidity ^0.4.18;\nimport \"./Whitelist.sol\";\nimport \"zeppelin-solidity/contracts/math/SafeMath.sol\";\n\ncontract WhitelistedGateway {\n\tusing SafeMath for uint256;\n\n\tmapping(address=>bool) public owners;\n\tmapping(address=>uint) public contributions;\n\taddress public vault;\n\tWhitelist public whitelist;\n\n\tevent NewContribution(address contributor, uint256 amount, uint256 timestamp);\n\n\tmodifier onlyOwners() {\n\t\trequire(owners[msg.sender]);\n\t\t_;\n\t}\n\n\tfunction addOwner(address newOwner) public onlyOwners {\n\t\towners[newOwner] = true;\n\t}\n\n\tfunction WhitelistedGateway(Whitelist _whitelist, address _vault) public {\n\t\twhitelist = _whitelist;\n\t\tvault = _vault;\n\t\towners[msg.sender] = true;\n\t}\n\n\tfunction isWhitelisted(address candidate) public view returns(bool) {\n\t\treturn whitelist.isWhitelisted(candidate);\n\t}\n\n\tfunction fund(address contributor) public payable onlyOwners {\n\t\tcontributions[contributor] += msg.value;\n\t\tvault.transfer(msg.value);\n\t\tNewContribution(contributor, msg.value, now);\n\t}\n}",
  "sourcePath": "/home/ubuntu/Whitelist/contracts/WhitelistedGateway.sol",
  "compiler": {
    "name": "solc",
    "version": "0.4.18+commit.9cf6e910.Emscripten.clang"
  },
  "schemaVersion": "1.0.1",
  "updatedAt": "2018-01-18T20:49:29.564Z"
}